{
  "address": "0xFe19CbA3aB1A189B7FC17cAa798Df64Ad2b54d4D",
  "abi": [
    {
      "inputs": [
        {
          "internalType": "contract ICarbonVortex",
          "name": "vortexInit",
          "type": "address"
        },
        {
          "internalType": "contract IStargate",
          "name": "stargateInit",
          "type": "address"
        },
        {
          "internalType": "address",
          "name": "vaultInit",
          "type": "address"
        }
      ],
      "stateMutability": "nonpayable",
      "type": "constructor"
    },
    {
      "inputs": [],
      "name": "AccessDenied",
      "type": "error"
    },
    {
      "inputs": [],
      "name": "AlreadyInitialized",
      "type": "error"
    },
    {
      "inputs": [
        {
          "internalType": "uint256",
          "name": "amountReceived",
          "type": "uint256"
        },
        {
          "internalType": "uint256",
          "name": "minAmount",
          "type": "uint256"
        }
      ],
      "name": "InsufficientAmountReceived",
      "type": "error"
    },
    {
      "inputs": [],
      "name": "InsufficientNativeTokenSent",
      "type": "error"
    },
    {
      "inputs": [],
      "name": "InvalidAddress",
      "type": "error"
    },
    {
      "inputs": [],
      "name": "InvalidSlippage",
      "type": "error"
    },
    {
      "inputs": [],
      "name": "Overflow",
      "type": "error"
    },
    {
      "anonymous": false,
      "inputs": [
        {
          "indexed": true,
          "internalType": "Token",
          "name": "token",
          "type": "address"
        },
        {
          "indexed": true,
          "internalType": "address",
          "name": "caller",
          "type": "address"
        },
        {
          "indexed": true,
          "internalType": "address",
          "name": "target",
          "type": "address"
        },
        {
          "indexed": false,
          "internalType": "uint256",
          "name": "amount",
          "type": "uint256"
        }
      ],
      "name": "FundsWithdrawn",
      "type": "event"
    },
    {
      "anonymous": false,
      "inputs": [
        {
          "indexed": false,
          "internalType": "uint8",
          "name": "version",
          "type": "uint8"
        }
      ],
      "name": "Initialized",
      "type": "event"
    },
    {
      "anonymous": false,
      "inputs": [
        {
          "indexed": true,
          "internalType": "bytes32",
          "name": "role",
          "type": "bytes32"
        },
        {
          "indexed": true,
          "internalType": "bytes32",
          "name": "previousAdminRole",
          "type": "bytes32"
        },
        {
          "indexed": true,
          "internalType": "bytes32",
          "name": "newAdminRole",
          "type": "bytes32"
        }
      ],
      "name": "RoleAdminChanged",
      "type": "event"
    },
    {
      "anonymous": false,
      "inputs": [
        {
          "indexed": true,
          "internalType": "bytes32",
          "name": "role",
          "type": "bytes32"
        },
        {
          "indexed": true,
          "internalType": "address",
          "name": "account",
          "type": "address"
        },
        {
          "indexed": true,
          "internalType": "address",
          "name": "sender",
          "type": "address"
        }
      ],
      "name": "RoleGranted",
      "type": "event"
    },
    {
      "anonymous": false,
      "inputs": [
        {
          "indexed": true,
          "internalType": "bytes32",
          "name": "role",
          "type": "bytes32"
        },
        {
          "indexed": true,
          "internalType": "address",
          "name": "account",
          "type": "address"
        },
        {
          "indexed": true,
          "internalType": "address",
          "name": "sender",
          "type": "address"
        }
      ],
      "name": "RoleRevoked",
      "type": "event"
    },
    {
      "anonymous": false,
      "inputs": [
        {
          "indexed": false,
          "internalType": "uint32",
          "name": "prevSlippagePPM",
          "type": "uint32"
        },
        {
          "indexed": false,
          "internalType": "uint32",
          "name": "newSlippagePPM",
          "type": "uint32"
        }
      ],
      "name": "SlippagePPMUpdated",
      "type": "event"
    },
    {
      "anonymous": false,
      "inputs": [
        {
          "indexed": true,
          "internalType": "address",
          "name": "sender",
          "type": "address"
        },
        {
          "indexed": true,
          "internalType": "Token",
          "name": "token",
          "type": "address"
        },
        {
          "indexed": false,
          "internalType": "uint256",
          "name": "amount",
          "type": "uint256"
        }
      ],
      "name": "TokensBridged",
      "type": "event"
    },
    {
      "anonymous": false,
      "inputs": [
        {
          "indexed": true,
          "internalType": "Token",
          "name": "prevWithdrawToken",
          "type": "address"
        },
        {
          "indexed": true,
          "internalType": "Token",
          "name": "newWithdrawToken",
          "type": "address"
        }
      ],
      "name": "WithdrawTokenUpdated",
      "type": "event"
    },
    {
      "inputs": [],
      "name": "DEFAULT_ADMIN_ROLE",
      "outputs": [
        {
          "internalType": "bytes32",
          "name": "",
          "type": "bytes32"
        }
      ],
      "stateMutability": "view",
      "type": "function"
    },
    {
      "inputs": [
        {
          "internalType": "uint256",
          "name": "amount",
          "type": "uint256"
        }
      ],
      "name": "bridge",
      "outputs": [
        {
          "internalType": "uint256",
          "name": "",
          "type": "uint256"
        }
      ],
      "stateMutability": "payable",
      "type": "function"
    },
    {
      "inputs": [
        {
          "internalType": "bytes32",
          "name": "role",
          "type": "bytes32"
        }
      ],
      "name": "getRoleAdmin",
      "outputs": [
        {
          "internalType": "bytes32",
          "name": "",
          "type": "bytes32"
        }
      ],
      "stateMutability": "view",
      "type": "function"
    },
    {
      "inputs": [
        {
          "internalType": "bytes32",
          "name": "role",
          "type": "bytes32"
        },
        {
          "internalType": "uint256",
          "name": "index",
          "type": "uint256"
        }
      ],
      "name": "getRoleMember",
      "outputs": [
        {
          "internalType": "address",
          "name": "",
          "type": "address"
        }
      ],
      "stateMutability": "view",
      "type": "function"
    },
    {
      "inputs": [
        {
          "internalType": "bytes32",
          "name": "role",
          "type": "bytes32"
        }
      ],
      "name": "getRoleMemberCount",
      "outputs": [
        {
          "internalType": "uint256",
          "name": "",
          "type": "uint256"
        }
      ],
      "stateMutability": "view",
      "type": "function"
    },
    {
      "inputs": [
        {
          "internalType": "bytes32",
          "name": "role",
          "type": "bytes32"
        },
        {
          "internalType": "address",
          "name": "account",
          "type": "address"
        }
      ],
      "name": "grantRole",
      "outputs": [],
      "stateMutability": "nonpayable",
      "type": "function"
    },
    {
      "inputs": [
        {
          "internalType": "bytes32",
          "name": "role",
          "type": "bytes32"
        },
        {
          "internalType": "address",
          "name": "account",
          "type": "address"
        }
      ],
      "name": "hasRole",
      "outputs": [
        {
          "internalType": "bool",
          "name": "",
          "type": "bool"
        }
      ],
      "stateMutability": "view",
      "type": "function"
    },
    {
      "inputs": [
        {
          "internalType": "Token",
          "name": "withdrawTokenInit",
          "type": "address"
        },
        {
          "internalType": "uint32",
          "name": "slippagePPMInit",
          "type": "uint32"
        }
      ],
      "name": "initialize",
      "outputs": [],
      "stateMutability": "nonpayable",
      "type": "function"
    },
    {
      "inputs": [
        {
          "internalType": "bool",
          "name": "checkVersion",
          "type": "bool"
        },
        {
          "internalType": "bytes",
          "name": "data",
          "type": "bytes"
        }
      ],
      "name": "postUpgrade",
      "outputs": [],
      "stateMutability": "nonpayable",
      "type": "function"
    },
    {
      "inputs": [
        {
          "internalType": "bytes32",
          "name": "role",
          "type": "bytes32"
        },
        {
          "internalType": "address",
          "name": "account",
          "type": "address"
        }
      ],
      "name": "renounceRole",
      "outputs": [],
      "stateMutability": "nonpayable",
      "type": "function"
    },
    {
      "inputs": [
        {
          "internalType": "bytes32",
          "name": "role",
          "type": "bytes32"
        },
        {
          "internalType": "address",
          "name": "account",
          "type": "address"
        }
      ],
      "name": "revokeRole",
      "outputs": [],
      "stateMutability": "nonpayable",
      "type": "function"
    },
    {
      "inputs": [],
      "name": "roleAdmin",
      "outputs": [
        {
          "internalType": "bytes32",
          "name": "",
          "type": "bytes32"
        }
      ],
      "stateMutability": "pure",
      "type": "function"
    },
    {
      "inputs": [
        {
          "internalType": "uint32",
          "name": "newSlippagePPM",
          "type": "uint32"
        }
      ],
      "name": "setSlippagePPM",
      "outputs": [],
      "stateMutability": "nonpayable",
      "type": "function"
    },
    {
      "inputs": [
        {
          "internalType": "Token",
          "name": "newWithdrawToken",
          "type": "address"
        }
      ],
      "name": "setWithdrawToken",
      "outputs": [],
      "stateMutability": "nonpayable",
      "type": "function"
    },
    {
      "inputs": [],
      "name": "slippagePPM",
      "outputs": [
        {
          "internalType": "uint32",
          "name": "",
          "type": "uint32"
        }
      ],
      "stateMutability": "view",
      "type": "function"
    },
    {
      "inputs": [
        {
          "internalType": "bytes4",
          "name": "interfaceId",
          "type": "bytes4"
        }
      ],
      "name": "supportsInterface",
      "outputs": [
        {
          "internalType": "bool",
          "name": "",
          "type": "bool"
        }
      ],
      "stateMutability": "view",
      "type": "function"
    },
    {
      "inputs": [],
      "name": "version",
      "outputs": [
        {
          "internalType": "uint16",
          "name": "",
          "type": "uint16"
        }
      ],
      "stateMutability": "pure",
      "type": "function"
    },
    {
      "inputs": [
        {
          "internalType": "Token",
          "name": "token",
          "type": "address"
        },
        {
          "internalType": "address payable",
          "name": "target",
          "type": "address"
        },
        {
          "internalType": "uint256",
          "name": "amount",
          "type": "uint256"
        }
      ],
      "name": "withdrawFunds",
      "outputs": [],
      "stateMutability": "nonpayable",
      "type": "function"
    },
    {
      "inputs": [],
      "name": "withdrawToken",
      "outputs": [
        {
          "internalType": "Token",
          "name": "",
          "type": "address"
        }
      ],
      "stateMutability": "view",
      "type": "function"
    },
    {
      "stateMutability": "payable",
      "type": "receive"
    }
  ],
  "transactionHash": "0x8a823879b4e581ba2de7a6d3c3b9ffb521924e5a565473fc451545c43f8651b3",
  "args": [
    "0xf7c7d7507041977aB0328CAf449f1e80085709a9",
    "0x61D66bC21fED820938021B06e9b2291f3FB91945",
    "0x60917e542aDdd13bfd1a7f81cD654758052dAdC4"
  ],
  "numDeployments": 1,
  "solcInputHash": "fafa5eb796ce853154560d110634d0f9",
  "bytecode": "0x60e06040523480156200001157600080fd5b506040516200386338038062003863833981016040819052620000349162000191565b82818162000042816200008f565b816200004e816200008f565b50506001600160a01b039182166080521660a052816200006e816200008f565b6001600160a01b03831660c05262000085620000ba565b50505050620001e5565b6001600160a01b038116620000b75760405163e6c4247b60e01b815260040160405180910390fd5b50565b600054610100900460ff1615620001275760405162461bcd60e51b815260206004820152602760248201527f496e697469616c697a61626c653a20636f6e747261637420697320696e697469604482015266616c697a696e6760c81b606482015260840160405180910390fd5b60005460ff9081161462000179576000805460ff191660ff9081179091556040519081527f7f26b83ff96e1f2b6a682f133852f6798a09c465da95921460cefb38474024989060200160405180910390a15b565b6001600160a01b0381168114620000b757600080fd5b600080600060608486031215620001a757600080fd5b8351620001b4816200017b565b6020850151909350620001c7816200017b565b6040850151909250620001da816200017b565b809150509250925092565b60805160a05160c05161362b62000238600039600081816107d1015281816108e20152818161098201528181610a620152610ac4015260006107450152600081816111d30152611315015261362b6000f3fe6080604052600436106101485760003560e01c806391d14854116100c0578063ca628c7811610074578063debcf1fe11610059578063debcf1fe146103e4578063e3ab224614610404578063fe4406ea1461042457600080fd5b8063ca628c7814610398578063d547741f146103c457600080fd5b8063a217fddf116100a5578063a217fddf14610343578063c5e4c9f914610358578063ca15c8731461037857600080fd5b806391d14854146102bd57806393867fb51461031057600080fd5b806336568abe1161011757806367d13dd3116100fc57806367d13dd3146102455780639010d07c1461026557806390fd50b3146102aa57600080fd5b806336568abe1461020957806354fd4d501461022957600080fd5b806301ffc9a7146101545780631c20fadd14610189578063248a9ca3146101ab5780632f2ff15d146101e957600080fd5b3661014f57005b600080fd5b34801561016057600080fd5b5061017461016f366004612baa565b610468565b60405190151581526020015b60405180910390f35b34801561019557600080fd5b506101a96101a4366004612c0e565b6104c4565b005b3480156101b757600080fd5b506101db6101c6366004612c4f565b60009081526097602052604090206001015490565b604051908152602001610180565b3480156101f557600080fd5b506101a9610204366004612c68565b6105b5565b34801561021557600080fd5b506101a9610224366004612c68565b6105df565b34801561023557600080fd5b5060405160018152602001610180565b34801561025157600080fd5b506101a9610260366004612c98565b610697565b34801561027157600080fd5b50610285610280366004612cb5565b6106d4565b60405173ffffffffffffffffffffffffffffffffffffffff9091168152602001610180565b6101db6102b8366004612c4f565b6106f3565b3480156102c957600080fd5b506101746102d8366004612c68565b600091825260976020908152604080842073ffffffffffffffffffffffffffffffffffffffff93909316845291905290205460ff1690565b34801561031c57600080fd5b507f2172861495e7b85edac73e3cd5fbb42dd675baadf627720e687bcfdaca0250966101db565b34801561034f57600080fd5b506101db600081565b34801561036457600080fd5b506101a9610373366004612ceb565b610be4565b34801561038457600080fd5b506101db610393366004612c4f565b610d79565b3480156103a457600080fd5b5061012d5473ffffffffffffffffffffffffffffffffffffffff16610285565b3480156103d057600080fd5b506101a96103df366004612c68565b610d90565b3480156103f057600080fd5b506101a96103ff366004612d2e565b610db5565b34801561041057600080fd5b506101a961041f366004612db3565b610e58565b34801561043057600080fd5b5061012d5474010000000000000000000000000000000000000000900463ffffffff1660405163ffffffff9091168152602001610180565b60007fffffffff0000000000000000000000000000000000000000000000000000000082167f5a05180f0000000000000000000000000000000000000000000000000000000014806104be57506104be82610e95565b92915050565b816104ce81610f2c565b6104f87f2172861495e7b85edac73e3cd5fbb42dd675baadf627720e687bcfdaca02509633610f7c565b610500610fe5565b81156105a65761052773ffffffffffffffffffffffffffffffffffffffff85168484611058565b8273ffffffffffffffffffffffffffffffffffffffff163373ffffffffffffffffffffffffffffffffffffffff168573ffffffffffffffffffffffffffffffffffffffff167fc322efa58c9cb2c39cfffdac61d35c8643f5cbf13c6a7d0034de2cf18923aff38560405161059d91815260200190565b60405180910390a45b6105af60018055565b50505050565b6000828152609760205260409020600101546105d0816110b4565b6105da83836110be565b505050565b73ffffffffffffffffffffffffffffffffffffffff81163314610689576040517f08c379a000000000000000000000000000000000000000000000000000000000815260206004820152602f60248201527f416363657373436f6e74726f6c3a2063616e206f6e6c792072656e6f756e636560448201527f20726f6c657320666f722073656c66000000000000000000000000000000000060648201526084015b60405180910390fd5b61069382826110e0565b5050565b6106c17f2172861495e7b85edac73e3cd5fbb42dd675baadf627720e687bcfdaca02509633610f7c565b806106cb81610f2c565b61069382611102565b600082815260c9602052604081206106ec90836111a2565b9392505050565b60006106fd610fe5565b610706826111ae565b91508160000361071857506000610bd6565b600061072383611389565b905060006040518060e0016040528061759563ffffffff16815260200161077d7f000000000000000000000000000000000000000000000000000000000000000073ffffffffffffffffffffffffffffffffffffffff1690565b815260200185815260200183815260200160405180602001604052806000815250815260200160405180602001604052806000815250815260200160405180602001604052806000815250815250905060007f000000000000000000000000000000000000000000000000000000000000000073ffffffffffffffffffffffffffffffffffffffff16630d35b415836040518263ffffffff1660e01b81526004016108289190612eb2565b600060405180830381865afa158015610845573d6000803e3d6000fd5b505050506040513d6000823e601f3d9081017fffffffffffffffffffffffffffffffffffffffffffffffffffffffffffffffe016820160405261088b9190810190613009565b925050506000816020015190506108a281856113c7565b6040517f3b6f743b00000000000000000000000000000000000000000000000000000000815260009073ffffffffffffffffffffffffffffffffffffffff7f00000000000000000000000000000000000000000000000000000000000000001690633b6f743b906109199087908590600401613161565b6040805180830381865afa158015610935573d6000803e3d6000fd5b505050506040513d601f19601f820116820180604052508101906109599190613185565b8051909150610968348261140b565b600073ffffffffffffffffffffffffffffffffffffffff167f000000000000000000000000000000000000000000000000000000000000000073ffffffffffffffffffffffffffffffffffffffff1663fc0c546a6040518163ffffffff1660e01b8152600401602060405180830381865afa1580156109eb573d6000803e3d6000fd5b505050506040513d601f19601f82011682018060405250810190610a0f91906131a1565b73ffffffffffffffffffffffffffffffffffffffff1603610a3c576040850151610a3990826131ed565b90505b61012d546040860151610a879173ffffffffffffffffffffffffffffffffffffffff16907f000000000000000000000000000000000000000000000000000000000000000090611445565b6040517fcbef2aa900000000000000000000000000000000000000000000000000000000815273ffffffffffffffffffffffffffffffffffffffff7f0000000000000000000000000000000000000000000000000000000000000000169063cbef2aa9908390610aff90899087903390600401613200565b60006040518083038185885af1158015610b1d573d6000803e3d6000fd5b50505050506040513d6000823e601f3d9081017fffffffffffffffffffffffffffffffffffffffffffffffffffffffffffffffe0168201604052610b6491908101906132c7565b508351909550610b7891503390349061156a565b61012d5460405189815273ffffffffffffffffffffffffffffffffffffffff9091169033907f913f1d1dff214ff34cd86dad2e6ccdd8a7dfe420e071ae5d59552f084f8c779e9060200160405180910390a350505060200151925050505b610bdf60018055565b919050565b600054610100900460ff1615808015610c045750600054600160ff909116105b80610c1e5750303b158015610c1e575060005460ff166001145b610caa576040517f08c379a000000000000000000000000000000000000000000000000000000000815260206004820152602e60248201527f496e697469616c697a61626c653a20636f6e747261637420697320616c72656160448201527f647920696e697469616c697a65640000000000000000000000000000000000006064820152608401610680565b600080547fffffffffffffffffffffffffffffffffffffffffffffffffffffffffffffff001660011790558015610d0857600080547fffffffffffffffffffffffffffffffffffffffffffffffffffffffffffff00ff166101001790555b610d12838361159c565b80156105da57600080547fffffffffffffffffffffffffffffffffffffffffffffffffffffffffffff00ff169055604051600181527f7f26b83ff96e1f2b6a682f133852f6798a09c465da95921460cefb38474024989060200160405180910390a1505050565b600081815260c9602052604081206104be90611645565b600082815260976020526040902060010154610dab816110b4565b6105da83836110e0565b60fb54600090610dca9061ffff166001613383565b90506001848015610de357508061ffff168261ffff1614155b15610e1a576040517f0dc149f000000000000000000000000000000000000000000000000000000000815260040160405180910390fd5b84610e23578091505b60fb80547fffffffffffffffffffffffffffffffffffffffffffffffffffffffffffff00001661ffff84161790555050505050565b610e827f2172861495e7b85edac73e3cd5fbb42dd675baadf627720e687bcfdaca02509633610f7c565b80610e8c8161164f565b61069382611692565b60007fffffffff0000000000000000000000000000000000000000000000000000000082167f7965db0b0000000000000000000000000000000000000000000000000000000014806104be57507f01ffc9a7000000000000000000000000000000000000000000000000000000007fffffffff000000000000000000000000000000000000000000000000000000008316146104be565b73ffffffffffffffffffffffffffffffffffffffff8116610f79576040517fe6c4247b00000000000000000000000000000000000000000000000000000000815260040160405180910390fd5b50565b600082815260976020908152604080832073ffffffffffffffffffffffffffffffffffffffff8516845290915290205460ff16610693576040517f4ca8886700000000000000000000000000000000000000000000000000000000815260040160405180910390fd5b600260015403611051576040517f08c379a000000000000000000000000000000000000000000000000000000000815260206004820152601f60248201527f5265656e7472616e637947756172643a207265656e7472616e742063616c6c006044820152606401610680565b6002600155565b8060000361106557505050565b61106e83611752565b15611093576105da73ffffffffffffffffffffffffffffffffffffffff831682611786565b6105da73ffffffffffffffffffffffffffffffffffffffff841683836118e0565b610f7981336119b4565b6110c88282611a6e565b600082815260c9602052604090206105da9082611b62565b6110ea8282611b84565b600082815260c9602052604090206105da9082611c3f565b61012d5473ffffffffffffffffffffffffffffffffffffffff908116908216810361112b575050565b61012d80547fffffffffffffffffffffffff00000000000000000000000000000000000000001673ffffffffffffffffffffffffffffffffffffffff84811691821790925560405190918316907f411abd5d3fa02a1e8bf54a40f19e646d3358a89c8a0cbd60537a603a2e3f2cb590600090a35050565b60006106ec8383611c61565b61012d5460009081906111f79073ffffffffffffffffffffffffffffffffffffffff167f0000000000000000000000000000000000000000000000000000000000000000611c8b565b90508060000361120a5750600092915050565b80831180611216575082155b1561121f578092505b60408051600180825281830190925260009160208083019080368337505061012d54825192935073ffffffffffffffffffffffffffffffffffffffff169183915060009061126f5761126f61339e565b73ffffffffffffffffffffffffffffffffffffffff929092166020928302919091019091015260408051600180825281830190925260009181602001602082028036833701905050905084816000815181106112cd576112cd61339e565b60209081029190910101526040517fa1a660a700000000000000000000000000000000000000000000000000000000815273ffffffffffffffffffffffffffffffffffffffff7f0000000000000000000000000000000000000000000000000000000000000000169063a1a660a79061134e908590309086906004016133cd565b600060405180830381600087803b15801561136857600080fd5b505af115801561137c573d6000803e3d6000fd5b5096979650505050505050565b61012d546000906113bd90839074010000000000000000000000000000000000000000900463ffffffff16620f4240611d4c565b6104be908361347b565b80821015610693576040517fa18f40750000000000000000000000000000000000000000000000000000000081526004810183905260248101829052604401610680565b80821015610693576040517f9086bdc100000000000000000000000000000000000000000000000000000000815260040160405180910390fd5b6114648373ffffffffffffffffffffffffffffffffffffffff16611752565b1561146e57505050565b600073ffffffffffffffffffffffffffffffffffffffff84166040517fdd62ed3e00000000000000000000000000000000000000000000000000000000815230600482015273ffffffffffffffffffffffffffffffffffffffff8581166024830152919091169063dd62ed3e90604401602060405180830381865afa1580156114fb573d6000803e3d6000fd5b505050506040513d601f19601f8201168201806040525081019061151f919061348e565b9050818110156105af576105af73ffffffffffffffffffffffffffffffffffffffff8516847fffffffffffffffffffffffffffffffffffffffffffffffffffffffffffffffff611e40565b808211156105da576105da61157f828461347b565b73ffffffffffffffffffffffffffffffffffffffff851690611786565b600054610100900460ff16611633576040517f08c379a000000000000000000000000000000000000000000000000000000000815260206004820152602b60248201527f496e697469616c697a61626c653a20636f6e7472616374206973206e6f74206960448201527f6e697469616c697a696e670000000000000000000000000000000000000000006064820152608401610680565b61163b611e74565b6106938282611f1d565b60006104be825490565b620c350063ffffffff82161115610f79576040517f334ee9a100000000000000000000000000000000000000000000000000000000815260040160405180910390fd5b61012d5463ffffffff74010000000000000000000000000000000000000000909104811690821681036116c3575050565b61012d80547fffffffffffffffff00000000ffffffffffffffffffffffffffffffffffffffff167401000000000000000000000000000000000000000063ffffffff8581169182029290921790925560408051918416825260208201929092527f75ea67ca0b7130eb73ed94d953e6c83e271a1743f35d3e8f96399e70ffdfcdf2910160405180910390a15050565b600073ffffffffffffffffffffffffffffffffffffffff821673eeeeeeeeeeeeeeeeeeeeeeeeeeeeeeeeeeeeeeee146104be565b804710156117f0576040517f08c379a000000000000000000000000000000000000000000000000000000000815260206004820152601d60248201527f416464726573733a20696e73756666696369656e742062616c616e63650000006044820152606401610680565b60008273ffffffffffffffffffffffffffffffffffffffff168260405160006040518083038185875af1925050503d806000811461184a576040519150601f19603f3d011682016040523d82523d6000602084013e61184f565b606091505b50509050806105da576040517f08c379a000000000000000000000000000000000000000000000000000000000815260206004820152603a60248201527f416464726573733a20756e61626c6520746f2073656e642076616c75652c207260448201527f6563697069656e74206d617920686176652072657665727465640000000000006064820152608401610680565b60405173ffffffffffffffffffffffffffffffffffffffff83166024820152604481018290526105da9084907fa9059cbb00000000000000000000000000000000000000000000000000000000906064015b604080517fffffffffffffffffffffffffffffffffffffffffffffffffffffffffffffffe08184030181529190526020810180517bffffffffffffffffffffffffffffffffffffffffffffffffffffffff167fffffffff000000000000000000000000000000000000000000000000000000009093169290921790915261201d565b600082815260976020908152604080832073ffffffffffffffffffffffffffffffffffffffff8516845290915290205460ff16610693576119f48161212c565b6119ff83602061214b565b604051602001611a109291906134a7565b604080517fffffffffffffffffffffffffffffffffffffffffffffffffffffffffffffffe0818403018152908290527f08c379a000000000000000000000000000000000000000000000000000000000825261068091600401613528565b600082815260976020908152604080832073ffffffffffffffffffffffffffffffffffffffff8516845290915290205460ff1661069357600082815260976020908152604080832073ffffffffffffffffffffffffffffffffffffffff85168452909152902080547fffffffffffffffffffffffffffffffffffffffffffffffffffffffffffffff00166001179055611b043390565b73ffffffffffffffffffffffffffffffffffffffff168173ffffffffffffffffffffffffffffffffffffffff16837f2f8788117e7eff1d82e926ec794901d17c78024a50270940304540a733656f0d60405160405180910390a45050565b60006106ec8373ffffffffffffffffffffffffffffffffffffffff841661238e565b600082815260976020908152604080832073ffffffffffffffffffffffffffffffffffffffff8516845290915290205460ff161561069357600082815260976020908152604080832073ffffffffffffffffffffffffffffffffffffffff8516808552925280832080547fffffffffffffffffffffffffffffffffffffffffffffffffffffffffffffff0016905551339285917ff6391f5c32d9c69d2a47ea670b442974b53935d1edc7fd64eb21e047a839171b9190a45050565b60006106ec8373ffffffffffffffffffffffffffffffffffffffff84166123dd565b6000826000018281548110611c7857611c7861339e565b9060005260206000200154905092915050565b6000611c9683611752565b15611cb9575073ffffffffffffffffffffffffffffffffffffffff8116316104be565b826040517f70a0823100000000000000000000000000000000000000000000000000000000815273ffffffffffffffffffffffffffffffffffffffff848116600483015291909116906370a0823190602401602060405180830381865afa158015611d28573d6000803e3d6000fd5b505050506040513d601f19601f820116820180604052508101906106ec919061348e565b6000806000611d5b86866124d7565b9150915081600003611d8057838181611d7657611d7661353b565b04925050506106ec565b838210611db9576040517f35278d1200000000000000000000000000000000000000000000000000000000815260040160405180910390fd5b6000611dc6878787612512565b9050600080611dd685858561252d565b9150915081600003611dfe57868181611df157611df161353b565b04955050505050506106ec565b6000878103881690611e1184848461255d565b90506000611e2d838b81611e2757611e2761353b565b0461259a565b919091029b9a5050505050505050505050565b611e4983611752565b15611e5357505050565b6105da73ffffffffffffffffffffffffffffffffffffffff841683836125bb565b600054610100900460ff16611f0b576040517f08c379a000000000000000000000000000000000000000000000000000000000815260206004820152602b60248201527f496e697469616c697a61626c653a20636f6e7472616374206973206e6f74206960448201527f6e697469616c697a696e670000000000000000000000000000000000000000006064820152608401610680565b611f136126ab565b611f1b612742565b565b600054610100900460ff16611fb4576040517f08c379a000000000000000000000000000000000000000000000000000000000815260206004820152602b60248201527f496e697469616c697a61626c653a20636f6e7472616374206973206e6f74206960448201527f6e697469616c697a696e670000000000000000000000000000000000000000006064820152608401610680565b61012d805463ffffffff90921674010000000000000000000000000000000000000000027fffffffffffffffff00000000000000000000000000000000000000000000000090921673ffffffffffffffffffffffffffffffffffffffff90931692909217179055565b600061207f826040518060400160405280602081526020017f5361666545524332303a206c6f772d6c6576656c2063616c6c206661696c65648152508573ffffffffffffffffffffffffffffffffffffffff166128589092919063ffffffff16565b90508051600014806120a05750808060200190518101906120a0919061356a565b6105da576040517f08c379a000000000000000000000000000000000000000000000000000000000815260206004820152602a60248201527f5361666545524332303a204552433230206f7065726174696f6e20646964206e60448201527f6f742073756363656564000000000000000000000000000000000000000000006064820152608401610680565b60606104be73ffffffffffffffffffffffffffffffffffffffff831660145b6060600061215a836002613587565b6121659060026131ed565b67ffffffffffffffff81111561217d5761217d612ec5565b6040519080825280601f01601f1916602001820160405280156121a7576020820181803683370190505b5090507f3000000000000000000000000000000000000000000000000000000000000000816000815181106121de576121de61339e565b60200101907effffffffffffffffffffffffffffffffffffffffffffffffffffffffffffff1916908160001a9053507f7800000000000000000000000000000000000000000000000000000000000000816001815181106122415761224161339e565b60200101907effffffffffffffffffffffffffffffffffffffffffffffffffffffffffffff1916908160001a905350600061227d846002613587565b6122889060016131ed565b90505b6001811115612325577f303132333435363738396162636465660000000000000000000000000000000085600f16601081106122c9576122c961339e565b1a60f81b8282815181106122df576122df61339e565b60200101907effffffffffffffffffffffffffffffffffffffffffffffffffffffffffffff1916908160001a90535060049490941c9361231e8161359e565b905061228b565b5083156106ec576040517f08c379a000000000000000000000000000000000000000000000000000000000815260206004820181905260248201527f537472696e67733a20686578206c656e67746820696e73756666696369656e746044820152606401610680565b60008181526001830160205260408120546123d5575081546001818101845560008481526020808220909301849055845484825282860190935260409020919091556104be565b5060006104be565b600081815260018301602052604081205480156124c657600061240160018361347b565b85549091506000906124159060019061347b565b905081811461247a5760008660000182815481106124355761243561339e565b90600052602060002001549050808760000184815481106124585761245861339e565b6000918252602080832090910192909255918252600188019052604090208390555b855486908061248b5761248b6135d3565b6001900381819060005260206000200160009055905585600101600086815260200190815260200160002060009055600193505050506104be565b60009150506104be565b5092915050565b60008060006124e6858561286f565b90508484028082106124ff57908190039250905061250b565b60018183030393509150505b9250929050565b600081806125225761252261353b565b838509949350505050565b6000808284106125435750839050818303612555565b61254e60018661347b565b9150508183035b935093915050565b60008061257b83808303816125745761257461353b565b0460010190565b905082848161258c5761258c61353b565b048186021795945050505050565b60006001815b60088110156124d057838202600203820291506001016125a0565b6040805173ffffffffffffffffffffffffffffffffffffffff8416602482015260448082018490528251808303909101815260649091019091526020810180517bffffffffffffffffffffffffffffffffffffffffffffffffffffffff167f095ea7b300000000000000000000000000000000000000000000000000000000179052612647848261289c565b6105af5760405173ffffffffffffffffffffffffffffffffffffffff84166024820152600060448201526126a19085907f095ea7b30000000000000000000000000000000000000000000000000000000090606401611932565b6105af848261201d565b600054610100900460ff16611f1b576040517f08c379a000000000000000000000000000000000000000000000000000000000815260206004820152602b60248201527f496e697469616c697a61626c653a20636f6e7472616374206973206e6f74206960448201527f6e697469616c697a696e670000000000000000000000000000000000000000006064820152608401610680565b600054610100900460ff166127d9576040517f08c379a000000000000000000000000000000000000000000000000000000000815260206004820152602b60248201527f496e697469616c697a61626c653a20636f6e7472616374206973206e6f74206960448201527f6e697469616c697a696e670000000000000000000000000000000000000000006064820152608401610680565b60fb80547fffffffffffffffffffffffffffffffffffffffffffffffffffffffffffff000016600117905561282e7f2172861495e7b85edac73e3cd5fbb42dd675baadf627720e687bcfdaca0250968061295d565b611f1b7f2172861495e7b85edac73e3cd5fbb42dd675baadf627720e687bcfdaca025096336129a8565b606061286784846000856129b2565b949350505050565b60007fffffffffffffffffffffffffffffffffffffffffffffffffffffffffffffffff8284099392505050565b60008060008473ffffffffffffffffffffffffffffffffffffffff16846040516128c69190613602565b6000604051808303816000865af19150503d8060008114612903576040519150601f19603f3d011682016040523d82523d6000602084013e612908565b606091505b5091509150818015612932575080511580612932575080806020019051810190612932919061356a565b8015612954575073ffffffffffffffffffffffffffffffffffffffff85163b15155b95945050505050565b600082815260976020526040808220600101805490849055905190918391839186917fbd79b86ffe0ab8e8776151514217cd7cacd52c909f66475c3af44e129f0b00ff9190a4505050565b61069382826110be565b606082471015612a44576040517f08c379a000000000000000000000000000000000000000000000000000000000815260206004820152602660248201527f416464726573733a20696e73756666696369656e742062616c616e636520666f60448201527f722063616c6c00000000000000000000000000000000000000000000000000006064820152608401610680565b6000808673ffffffffffffffffffffffffffffffffffffffff168587604051612a6d9190613602565b60006040518083038185875af1925050503d8060008114612aaa576040519150601f19603f3d011682016040523d82523d6000602084013e612aaf565b606091505b5091509150612ac087838387612acb565b979650505050505050565b60608315612b61578251600003612b5a5773ffffffffffffffffffffffffffffffffffffffff85163b612b5a576040517f08c379a000000000000000000000000000000000000000000000000000000000815260206004820152601d60248201527f416464726573733a2063616c6c20746f206e6f6e2d636f6e74726163740000006044820152606401610680565b5081612867565b6128678383815115612b765781518083602001fd5b806040517f08c379a00000000000000000000000000000000000000000000000000000000081526004016106809190613528565b600060208284031215612bbc57600080fd5b81357fffffffff00000000000000000000000000000000000000000000000000000000811681146106ec57600080fd5b73ffffffffffffffffffffffffffffffffffffffff81168114610f7957600080fd5b600080600060608486031215612c2357600080fd5b8335612c2e81612bec565b92506020840135612c3e81612bec565b929592945050506040919091013590565b600060208284031215612c6157600080fd5b5035919050565b60008060408385031215612c7b57600080fd5b823591506020830135612c8d81612bec565b809150509250929050565b600060208284031215612caa57600080fd5b81356106ec81612bec565b60008060408385031215612cc857600080fd5b50508035926020909101359150565b803563ffffffff81168114610bdf57600080fd5b60008060408385031215612cfe57600080fd5b8235612d0981612bec565b9150612d1760208401612cd7565b90509250929050565b8015158114610f7957600080fd5b600080600060408486031215612d4357600080fd5b8335612d4e81612d20565b9250602084013567ffffffffffffffff80821115612d6b57600080fd5b818601915086601f830112612d7f57600080fd5b813581811115612d8e57600080fd5b876020828501011115612da057600080fd5b6020830194508093505050509250925092565b600060208284031215612dc557600080fd5b6106ec82612cd7565b60005b83811015612de9578181015183820152602001612dd1565b50506000910152565b60008151808452612e0a816020860160208601612dce565b601f017fffffffffffffffffffffffffffffffffffffffffffffffffffffffffffffffe0169290920160200192915050565b63ffffffff81511682526020810151602083015260408101516040830152606081015160608301526000608082015160e06080850152612e7f60e0850182612df2565b905060a083015184820360a0860152612e988282612df2565b91505060c083015184820360c08601526129548282612df2565b6020815260006106ec6020830184612e3c565b7f4e487b7100000000000000000000000000000000000000000000000000000000600052604160045260246000fd5b6040805190810167ffffffffffffffff81118282101715612f1757612f17612ec5565b60405290565b604051601f82017fffffffffffffffffffffffffffffffffffffffffffffffffffffffffffffffe016810167ffffffffffffffff81118282101715612f6457612f64612ec5565b604052919050565b600060408284031215612f7e57600080fd5b612f86612ef4565b9050815181526020820151602082015292915050565b600067ffffffffffffffff831115612fb657612fb6612ec5565b612fe760207fffffffffffffffffffffffffffffffffffffffffffffffffffffffffffffffe0601f86011601612f1d565b9050828152838383011115612ffb57600080fd5b6106ec836020830184612dce565b600080600060a0848603121561301e57600080fd5b6130288585612f6c565b9250604084015167ffffffffffffffff8082111561304557600080fd5b818601915086601f83011261305957600080fd5b815160208282111561306d5761306d612ec5565b8160051b61307c828201612f1d565b928352848101820192828101908b85111561309657600080fd5b83870192505b84831015613141578251868111156130b357600080fd5b87016040818e037fffffffffffffffffffffffffffffffffffffffffffffffffffffffffffffffe00112156130e757600080fd5b6130ef612ef4565b85820151815260408201518881111561310757600080fd5b8083019250508d603f83011261311c57600080fd5b61312d8e8784015160408501612f9c565b81870152835250918301919083019061309c565b809850505050505050506131588560608601612f6c565b90509250925092565b6040815260006131746040830185612e3c565b905082151560208301529392505050565b60006040828403121561319757600080fd5b6106ec8383612f6c565b6000602082840312156131b357600080fd5b81516106ec81612bec565b7f4e487b7100000000000000000000000000000000000000000000000000000000600052601160045260246000fd5b808201808211156104be576104be6131be565b6080815260006132136080830186612e3c565b9050835160208301526020840151604083015273ffffffffffffffffffffffffffffffffffffffff83166060830152949350505050565b60006040828403121561325c57600080fd5b613264612ef4565b9050815168ffffffffffffffffff8116811461327f57600080fd5b8152602082015167ffffffffffffffff81111561329b57600080fd5b8201601f810184136132ac57600080fd5b6132bb84825160208401612f9c565b60208301525092915050565b600080600083850360e08112156132dd57600080fd5b60808112156132eb57600080fd5b506040516060810167ffffffffffffffff828210818311171561331057613310612ec5565b816040528651835260208701519150808216821461332d57600080fd5b8160208401526133408860408901612f6c565b60408401528295506133558860808901612f6c565b945060c087015192508083111561336b57600080fd5b50506133798682870161324a565b9150509250925092565b61ffff8181168382160190808211156124d0576124d06131be565b7f4e487b7100000000000000000000000000000000000000000000000000000000600052603260045260246000fd5b606080825284519082018190526000906020906080840190828801845b8281101561341c57815173ffffffffffffffffffffffffffffffffffffffff16845292840192908401906001016133ea565b50505073ffffffffffffffffffffffffffffffffffffffff861684830152838103604085015284518082528583019183019060005b8181101561346d57835183529284019291840191600101613451565b509098975050505050505050565b818103818111156104be576104be6131be565b6000602082840312156134a057600080fd5b5051919050565b7f416363657373436f6e74726f6c3a206163636f756e74200000000000000000008152600083516134df816017850160208801612dce565b7f206973206d697373696e6720726f6c6520000000000000000000000000000000601791840191820152835161351c816028840160208801612dce565b01602801949350505050565b6020815260006106ec6020830184612df2565b7f4e487b7100000000000000000000000000000000000000000000000000000000600052601260045260246000fd5b60006020828403121561357c57600080fd5b81516106ec81612d20565b80820281158282048414176104be576104be6131be565b6000816135ad576135ad6131be565b507fffffffffffffffffffffffffffffffffffffffffffffffffffffffffffffffff0190565b7f4e487b7100000000000000000000000000000000000000000000000000000000600052603160045260246000fd5b60008251613614818460208701612dce565b919091019291505056fea164736f6c6343000813000a",
  "devdoc": {
    "details": "VortexStargateBridge contract",
    "events": {
      "FundsWithdrawn(address,address,address,uint256)": {
        "details": "triggered when tokens have been withdrawn from the carbon vortex bridge"
      },
      "Initialized(uint8)": {
        "details": "Triggered when the contract has been initialized or reinitialized."
      },
      "RoleAdminChanged(bytes32,bytes32,bytes32)": {
        "details": "Emitted when `newAdminRole` is set as ``role``'s admin role, replacing `previousAdminRole` `DEFAULT_ADMIN_ROLE` is the starting admin for all roles, despite {RoleAdminChanged} not being emitted signaling this. _Available since v3.1._"
      },
      "RoleGranted(bytes32,address,address)": {
        "details": "Emitted when `account` is granted `role`. `sender` is the account that originated the contract call, an admin role bearer except when using {AccessControl-_setupRole}."
      },
      "RoleRevoked(bytes32,address,address)": {
        "details": "Emitted when `account` is revoked `role`. `sender` is the account that originated the contract call:   - if using `revokeRole`, it is the admin role bearer   - if using `renounceRole`, it is the role bearer (i.e. `account`)"
      },
      "SlippagePPMUpdated(uint32,uint32)": {
        "details": "emitted when the slippage (in units of PPM) is updated"
      },
      "TokensBridged(address,address,uint256)": {
        "details": "emitted when tokens are bridged successfully"
      },
      "WithdrawTokenUpdated(address,address)": {
        "details": "emitted when the withdraw token is updated"
      }
    },
    "kind": "dev",
    "methods": {
      "constructor": {
        "details": "used to set immutable state variables and disable initialization of the implementation"
      },
      "getRoleAdmin(bytes32)": {
        "details": "Returns the admin role that controls `role`. See {grantRole} and {revokeRole}. To change a role's admin, use {_setRoleAdmin}."
      },
      "getRoleMember(bytes32,uint256)": {
        "details": "Returns one of the accounts that have `role`. `index` must be a value between 0 and {getRoleMemberCount}, non-inclusive. Role bearers are not sorted in any particular way, and their ordering may change at any point. WARNING: When using {getRoleMember} and {getRoleMemberCount}, make sure you perform all queries on the same block. See the following https://forum.openzeppelin.com/t/iterating-over-elements-on-enumerableset-in-openzeppelin-contracts/2296[forum post] for more information."
      },
      "getRoleMemberCount(bytes32)": {
        "details": "Returns the number of accounts that have `role`. Can be used together with {getRoleMember} to enumerate all bearers of a role."
      },
      "grantRole(bytes32,address)": {
        "details": "Grants `role` to `account`. If `account` had not been already granted `role`, emits a {RoleGranted} event. Requirements: - the caller must have ``role``'s admin role. May emit a {RoleGranted} event."
      },
      "hasRole(bytes32,address)": {
        "details": "Returns `true` if `account` has been granted `role`."
      },
      "initialize(address,uint32)": {
        "details": "initializes the contract"
      },
      "postUpgrade(bool,bytes)": {
        "details": "performs post-upgrade initialization requirements: - this must and can be called only once per-upgrade"
      },
      "renounceRole(bytes32,address)": {
        "details": "Revokes `role` from the calling account. Roles are often managed via {grantRole} and {revokeRole}: this function's purpose is to provide a mechanism for accounts to lose their privileges if they are compromised (such as when a trusted device is misplaced). If the calling account had been revoked `role`, emits a {RoleRevoked} event. Requirements: - the caller must be `account`. May emit a {RoleRevoked} event."
      },
      "revokeRole(bytes32,address)": {
        "details": "Revokes `role` from `account`. If `account` had been granted `role`, emits a {RoleRevoked} event. Requirements: - the caller must have ``role``'s admin role. May emit a {RoleRevoked} event."
      },
      "roleAdmin()": {
        "details": "returns the admin role"
      },
      "supportsInterface(bytes4)": {
        "details": "See {IERC165-supportsInterface}."
      }
    },
    "version": 1
  },
  "userdoc": {
    "kind": "user",
    "methods": {
      "bridge(uint256)": {
        "notice": "function which bridges the target / final target tokens accumulated in the vortex to the mainnet vaultif amount == 0, the entire available balance is bridged"
      },
      "setSlippagePPM(uint32)": {
        "notice": "sets the maximum allowed bridge slippage (in units of PPM) requirements: - the caller must be the admin of the contract"
      },
      "setWithdrawToken(address)": {
        "notice": "sets the withdraw token requirements: - the caller must be the admin of the contract"
      },
      "slippagePPM()": {
        "notice": "returns the maximum allowed bridge slippage (in units of PPM)"
      },
      "version()": {
        "notice": "returns the version of the contract"
      },
      "withdrawFunds(address,address,uint256)": {
        "notice": "withdraws funds held by the contract and sends them to an accountnote that this is a safety mechanism, shouldn't be necessary in normal operation requirements: - the caller is admin of the contract"
      },
      "withdrawToken()": {
        "notice": "returns the configured withdraw token"
      }
    },
    "version": 1
  },
  "storageLayout": {
    "storage": [
      {
        "astId": 917,
        "contract": "contracts/bridge/VortexStargateBridge.sol:VortexStargateBridge",
        "label": "_initialized",
        "offset": 0,
        "slot": "0",
        "type": "t_uint8"
      },
      {
        "astId": 920,
        "contract": "contracts/bridge/VortexStargateBridge.sol:VortexStargateBridge",
        "label": "_initializing",
        "offset": 1,
        "slot": "0",
        "type": "t_bool"
      },
      {
        "astId": 1094,
        "contract": "contracts/bridge/VortexStargateBridge.sol:VortexStargateBridge",
        "label": "_status",
        "offset": 0,
        "slot": "1",
        "type": "t_uint256"
      },
      {
        "astId": 1163,
        "contract": "contracts/bridge/VortexStargateBridge.sol:VortexStargateBridge",
        "label": "__gap",
        "offset": 0,
        "slot": "2",
        "type": "t_array(t_uint256)49_storage"
      },
      {
        "astId": 1544,
        "contract": "contracts/bridge/VortexStargateBridge.sol:VortexStargateBridge",
        "label": "__gap",
        "offset": 0,
        "slot": "51",
        "type": "t_array(t_uint256)50_storage"
      },
      {
        "astId": 1818,
        "contract": "contracts/bridge/VortexStargateBridge.sol:VortexStargateBridge",
        "label": "__gap",
        "offset": 0,
        "slot": "101",
        "type": "t_array(t_uint256)50_storage"
      },
      {
        "astId": 504,
        "contract": "contracts/bridge/VortexStargateBridge.sol:VortexStargateBridge",
        "label": "_roles",
        "offset": 0,
        "slot": "151",
        "type": "t_mapping(t_bytes32,t_struct(RoleData)499_storage)"
      },
      {
        "astId": 811,
        "contract": "contracts/bridge/VortexStargateBridge.sol:VortexStargateBridge",
        "label": "__gap",
        "offset": 0,
        "slot": "152",
        "type": "t_array(t_uint256)49_storage"
      },
      {
        "astId": 352,
        "contract": "contracts/bridge/VortexStargateBridge.sol:VortexStargateBridge",
        "label": "_roleMembers",
        "offset": 0,
        "slot": "201",
        "type": "t_mapping(t_bytes32,t_struct(AddressSet)3128_storage)"
      },
      {
        "astId": 474,
        "contract": "contracts/bridge/VortexStargateBridge.sol:VortexStargateBridge",
        "label": "__gap",
        "offset": 0,
        "slot": "202",
        "type": "t_array(t_uint256)49_storage"
      },
      {
        "astId": 12979,
        "contract": "contracts/bridge/VortexStargateBridge.sol:VortexStargateBridge",
        "label": "_initializations",
        "offset": 0,
        "slot": "251",
        "type": "t_uint16"
      },
      {
        "astId": 12985,
        "contract": "contracts/bridge/VortexStargateBridge.sol:VortexStargateBridge",
        "label": "__gap",
        "offset": 0,
        "slot": "252",
        "type": "t_array(t_uint256)49_storage"
      },
      {
        "astId": 8513,
        "contract": "contracts/bridge/VortexStargateBridge.sol:VortexStargateBridge",
        "label": "_withdrawToken",
        "offset": 0,
        "slot": "301",
        "type": "t_userDefinedValueType(Token)12109"
      },
      {
        "astId": 8515,
        "contract": "contracts/bridge/VortexStargateBridge.sol:VortexStargateBridge",
        "label": "_slippagePPM",
        "offset": 20,
        "slot": "301",
        "type": "t_uint32"
      }
    ],
    "types": {
      "t_address": {
        "encoding": "inplace",
        "label": "address",
        "numberOfBytes": "20"
      },
      "t_array(t_bytes32)dyn_storage": {
        "base": "t_bytes32",
        "encoding": "dynamic_array",
        "label": "bytes32[]",
        "numberOfBytes": "32"
      },
      "t_array(t_uint256)49_storage": {
        "base": "t_uint256",
        "encoding": "inplace",
        "label": "uint256[49]",
        "numberOfBytes": "1568"
      },
      "t_array(t_uint256)50_storage": {
        "base": "t_uint256",
        "encoding": "inplace",
        "label": "uint256[50]",
        "numberOfBytes": "1600"
      },
      "t_bool": {
        "encoding": "inplace",
        "label": "bool",
        "numberOfBytes": "1"
      },
      "t_bytes32": {
        "encoding": "inplace",
        "label": "bytes32",
        "numberOfBytes": "32"
      },
      "t_mapping(t_address,t_bool)": {
        "encoding": "mapping",
        "key": "t_address",
        "label": "mapping(address => bool)",
        "numberOfBytes": "32",
        "value": "t_bool"
      },
      "t_mapping(t_bytes32,t_struct(AddressSet)3128_storage)": {
        "encoding": "mapping",
        "key": "t_bytes32",
        "label": "mapping(bytes32 => struct EnumerableSetUpgradeable.AddressSet)",
        "numberOfBytes": "32",
        "value": "t_struct(AddressSet)3128_storage"
      },
      "t_mapping(t_bytes32,t_struct(RoleData)499_storage)": {
        "encoding": "mapping",
        "key": "t_bytes32",
        "label": "mapping(bytes32 => struct AccessControlUpgradeable.RoleData)",
        "numberOfBytes": "32",
        "value": "t_struct(RoleData)499_storage"
      },
      "t_mapping(t_bytes32,t_uint256)": {
        "encoding": "mapping",
        "key": "t_bytes32",
        "label": "mapping(bytes32 => uint256)",
        "numberOfBytes": "32",
        "value": "t_uint256"
      },
      "t_struct(AddressSet)3128_storage": {
        "encoding": "inplace",
        "label": "struct EnumerableSetUpgradeable.AddressSet",
        "members": [
          {
            "astId": 3127,
            "contract": "contracts/bridge/VortexStargateBridge.sol:VortexStargateBridge",
            "label": "_inner",
            "offset": 0,
            "slot": "0",
            "type": "t_struct(Set)2813_storage"
          }
        ],
        "numberOfBytes": "64"
      },
      "t_struct(RoleData)499_storage": {
        "encoding": "inplace",
        "label": "struct AccessControlUpgradeable.RoleData",
        "members": [
          {
            "astId": 496,
            "contract": "contracts/bridge/VortexStargateBridge.sol:VortexStargateBridge",
            "label": "members",
            "offset": 0,
            "slot": "0",
            "type": "t_mapping(t_address,t_bool)"
          },
          {
            "astId": 498,
            "contract": "contracts/bridge/VortexStargateBridge.sol:VortexStargateBridge",
            "label": "adminRole",
            "offset": 0,
            "slot": "1",
            "type": "t_bytes32"
          }
        ],
        "numberOfBytes": "64"
      },
      "t_struct(Set)2813_storage": {
        "encoding": "inplace",
        "label": "struct EnumerableSetUpgradeable.Set",
        "members": [
          {
            "astId": 2808,
            "contract": "contracts/bridge/VortexStargateBridge.sol:VortexStargateBridge",
            "label": "_values",
            "offset": 0,
            "slot": "0",
            "type": "t_array(t_bytes32)dyn_storage"
          },
          {
            "astId": 2812,
            "contract": "contracts/bridge/VortexStargateBridge.sol:VortexStargateBridge",
            "label": "_indexes",
            "offset": 0,
            "slot": "1",
            "type": "t_mapping(t_bytes32,t_uint256)"
          }
        ],
        "numberOfBytes": "64"
      },
      "t_uint16": {
        "encoding": "inplace",
        "label": "uint16",
        "numberOfBytes": "2"
      },
      "t_uint256": {
        "encoding": "inplace",
        "label": "uint256",
        "numberOfBytes": "32"
      },
      "t_uint32": {
        "encoding": "inplace",
        "label": "uint32",
        "numberOfBytes": "4"
      },
      "t_uint8": {
        "encoding": "inplace",
        "label": "uint8",
        "numberOfBytes": "1"
      },
      "t_userDefinedValueType(Token)12109": {
        "encoding": "inplace",
        "label": "Token",
        "numberOfBytes": "20"
      }
    }
  }
}